:04000000803116280D
:100008007E14803140017F08F0000B1F11284E013B
:1000180017180D1C11288031942070084001FF002A
:100028007E100900803118287E10400180311C287C
:100038008031752080311430F300F30B2128000043
:1000480080314420803100308031872080318031F8
:100058008E20803101307202863003197102031834
:1000680037284001961080318E208031013072028D
:10007800C33003197102031C1F28400196141F285E
:1000880041019401950196019901970198019A01FE
:100098009B019C019D019E0142018D018E018F01F2
:1000A80090019101920193018530410193004E0125
:1000B8000D101714080040019701960198017E0160
:1000C800B901C401CF01FD30B800FF30C300FF30D3
:1000D800CE00FF3040019200FF309300FD309100C8
:1000E800080080315F20803180317E20803180316E
:1000F80044200800623051018D008F019101930165
:10010800900192010800F100710841019E009317C7
:100118001314080041010D08F2000C08F100080052
:060128004E010D1008005D
:020000040001F9
:0A000E00EC3FFF3B9F3FFF3FFF3F29
:00000001FF
